{
  "contractName": "Minter",
  "abi": [
    {
      "inputs": [
        {
          "internalType": "uint256",
          "name": "_nftKinds",
          "type": "uint256"
        },
        {
          "internalType": "uint256",
          "name": "_nftFunKinds",
          "type": "uint256"
        }
      ],
      "stateMutability": "nonpayable",
      "type": "constructor"
    },
    {
      "anonymous": false,
      "inputs": [
        {
          "indexed": true,
          "internalType": "uint256",
          "name": "kind",
          "type": "uint256"
        },
        {
          "indexed": true,
          "internalType": "uint256",
          "name": "id",
          "type": "uint256"
        },
        {
          "indexed": false,
          "internalType": "uint256",
          "name": "tip",
          "type": "uint256"
        },
        {
          "indexed": true,
          "internalType": "address",
          "name": "owner",
          "type": "address"
        }
      ],
      "name": "MintedFun",
      "type": "event"
    },
    {
      "anonymous": false,
      "inputs": [
        {
          "indexed": true,
          "internalType": "uint256",
          "name": "kind",
          "type": "uint256"
        },
        {
          "indexed": true,
          "internalType": "uint256",
          "name": "id",
          "type": "uint256"
        },
        {
          "indexed": false,
          "internalType": "uint256",
          "name": "tip",
          "type": "uint256"
        },
        {
          "indexed": true,
          "internalType": "address",
          "name": "owner",
          "type": "address"
        }
      ],
      "name": "MintedReal",
      "type": "event"
    },
    {
      "anonymous": false,
      "inputs": [
        {
          "indexed": true,
          "internalType": "address",
          "name": "leader",
          "type": "address"
        }
      ],
      "name": "NewTipLeader",
      "type": "event"
    },
    {
      "inputs": [],
      "name": "FUN_MINT_LIMIT",
      "outputs": [
        {
          "internalType": "uint256",
          "name": "",
          "type": "uint256"
        }
      ],
      "stateMutability": "view",
      "type": "function",
      "constant": true
    },
    {
      "inputs": [],
      "name": "FUN_PRICE",
      "outputs": [
        {
          "internalType": "uint256",
          "name": "",
          "type": "uint256"
        }
      ],
      "stateMutability": "view",
      "type": "function",
      "constant": true
    },
    {
      "inputs": [],
      "name": "REAL_ID_OFFSET",
      "outputs": [
        {
          "internalType": "uint256",
          "name": "",
          "type": "uint256"
        }
      ],
      "stateMutability": "view",
      "type": "function",
      "constant": true
    },
    {
      "inputs": [],
      "name": "REAL_MINT_LIMIT",
      "outputs": [
        {
          "internalType": "uint256",
          "name": "",
          "type": "uint256"
        }
      ],
      "stateMutability": "view",
      "type": "function",
      "constant": true
    },
    {
      "inputs": [],
      "name": "funMint",
      "outputs": [
        {
          "internalType": "uint256",
          "name": "",
          "type": "uint256"
        }
      ],
      "stateMutability": "view",
      "type": "function",
      "constant": true
    },
    {
      "inputs": [
        {
          "internalType": "uint256",
          "name": "",
          "type": "uint256"
        }
      ],
      "name": "nftFunKinds",
      "outputs": [
        {
          "internalType": "bool",
          "name": "",
          "type": "bool"
        }
      ],
      "stateMutability": "view",
      "type": "function",
      "constant": true
    },
    {
      "inputs": [
        {
          "internalType": "uint256",
          "name": "",
          "type": "uint256"
        }
      ],
      "name": "nftKinds",
      "outputs": [
        {
          "internalType": "bool",
          "name": "",
          "type": "bool"
        }
      ],
      "stateMutability": "view",
      "type": "function",
      "constant": true
    },
    {
      "inputs": [
        {
          "internalType": "uint256",
          "name": "",
          "type": "uint256"
        }
      ],
      "name": "nftKindsNumbers",
      "outputs": [
        {
          "internalType": "uint256",
          "name": "",
          "type": "uint256"
        }
      ],
      "stateMutability": "view",
      "type": "function",
      "constant": true
    },
    {
      "inputs": [
        {
          "internalType": "uint256",
          "name": "",
          "type": "uint256"
        }
      ],
      "name": "nftKindsPrices",
      "outputs": [
        {
          "internalType": "uint256",
          "name": "",
          "type": "uint256"
        }
      ],
      "stateMutability": "view",
      "type": "function",
      "constant": true
    },
    {
      "inputs": [
        {
          "internalType": "uint256",
          "name": "",
          "type": "uint256"
        }
      ],
      "name": "owner",
      "outputs": [
        {
          "internalType": "address",
          "name": "",
          "type": "address"
        }
      ],
      "stateMutability": "view",
      "type": "function",
      "constant": true
    },
    {
      "inputs": [],
      "name": "tipLeader",
      "outputs": [
        {
          "internalType": "address",
          "name": "",
          "type": "address"
        }
      ],
      "stateMutability": "view",
      "type": "function",
      "constant": true
    },
    {
      "inputs": [
        {
          "internalType": "address",
          "name": "",
          "type": "address"
        }
      ],
      "name": "tips",
      "outputs": [
        {
          "internalType": "uint256",
          "name": "",
          "type": "uint256"
        }
      ],
      "stateMutability": "view",
      "type": "function",
      "constant": true
    },
    {
      "inputs": [
        {
          "internalType": "uint256",
          "name": "nftKind",
          "type": "uint256"
        }
      ],
      "name": "mint",
      "outputs": [],
      "stateMutability": "payable",
      "type": "function",
      "payable": true
    },
    {
      "inputs": [
        {
          "internalType": "uint256",
          "name": "nftKind",
          "type": "uint256"
        }
      ],
      "name": "mintFun",
      "outputs": [],
      "stateMutability": "payable",
      "type": "function",
      "payable": true
    }
  ],
  "bytecode": "0x608060405234801561001057600080fd5b50604051610f33380380610f338339818101604052604081101561003357600080fd5b8101908080519060200190929190805190602001909291905050506000600190505b8281116100b55760016002600083815260200190815260200160002060006101000a81548160ff0219169083151502179055506706f05b59d3b2000060046000838152602001908152602001600020819055508080600101915050610055565b506000600190505b8181116100fc57600180600083815260200190815260200160002060006101000a81548160ff02191690831515021790555080806001019150506100bd565b505050610e258061010e6000396000f3fe6080604052600436106100dd5760003560e01c8063540cbfbf1161007f578063a123c33e11610059578063a123c33e14610330578063c0e36a9814610395578063cb8adc43146103e4578063e0f791991461040f576100dd565b8063540cbfbf1461026257806357e7f652146102b3578063a0712d6814610302576100dd565b80632a10831a116100bb5780632a10831a146101b35780632d6e5095146101de578063326320611461020c5780634633666014610237576100dd565b8063128922b2146100e25780631b21bc301461010d578063280201a814610172575b600080fd5b3480156100ee57600080fd5b506100f7610460565b6040518082815260200191505060405180910390f35b34801561011957600080fd5b5061015c6004803603602081101561013057600080fd5b81019080803573ffffffffffffffffffffffffffffffffffffffff169060200190929190505050610467565b6040518082815260200191505060405180910390f35b34801561017e57600080fd5b5061018761047f565b604051808273ffffffffffffffffffffffffffffffffffffffff16815260200191505060405180910390f35b3480156101bf57600080fd5b506101c86104a5565b6040518082815260200191505060405180910390f35b61020a600480360360208110156101f457600080fd5b81019080803590602001909291905050506104b1565b005b34801561021857600080fd5b50610221610989565b6040518082815260200191505060405180910390f35b34801561024357600080fd5b5061024c61098f565b6040518082815260200191505060405180910390f35b34801561026e57600080fd5b5061029b6004803603602081101561028557600080fd5b810190808035906020019092919050505061099a565b60405180821515815260200191505060405180910390f35b3480156102bf57600080fd5b506102ec600480360360208110156102d657600080fd5b81019080803590602001909291905050506109ba565b6040518082815260200191505060405180910390f35b61032e6004803603602081101561031857600080fd5b81019080803590602001909291905050506109d2565b005b34801561033c57600080fd5b506103696004803603602081101561035357600080fd5b8101908080359060200190929190505050610d7f565b604051808273ffffffffffffffffffffffffffffffffffffffff16815260200191505060405180910390f35b3480156103a157600080fd5b506103ce600480360360208110156103b857600080fd5b8101908080359060200190929190505050610db2565b6040518082815260200191505060405180910390f35b3480156103f057600080fd5b506103f9610dca565b6040518082815260200191505060405180910390f35b34801561041b57600080fd5b506104486004803603602081101561043257600080fd5b8101908080359060200190929190505050610dcf565b60405180821515815260200191505060405180910390f35b620186a081565b60066020528060005260406000206000915090505481565b600760009054906101000a900473ffffffffffffffffffffffffffffffffffffffff1681565b670de0b6b3a764000081565b6001600082815260200190815260200160002060009054906101000a900460ff16610544576040517f08c379a00000000000000000000000000000000000000000000000000000000081526004018080602001828103825260138152602001807f6b696e6420646f6573206e6f742065786973740000000000000000000000000081525060200191505060405180910390fd5b620186a0600054106105be576040517f08c379a000000000000000000000000000000000000000000000000000000000815260040180806020018281038252600d8152602001807f616c6c2061726520676f6e65210000000000000000000000000000000000000081525060200191505060405180910390fd5b662386f26fc1000034101561063b576040517f08c379a000000000000000000000000000000000000000000000000000000000815260040180806020018281038252600a8152602001807f746f6f206368656170210000000000000000000000000000000000000000000081525060200191505060405180910390fd5b6000662386f26fc100003403905080600660003373ffffffffffffffffffffffffffffffffffffffff1673ffffffffffffffffffffffffffffffffffffffff1681526020019081526020016000205401600660003373ffffffffffffffffffffffffffffffffffffffff1673ffffffffffffffffffffffffffffffffffffffff16815260200190815260200160002081905550600160005401600081905550600080549050600073ffffffffffffffffffffffffffffffffffffffff166005600083815260200190815260200160002060009054906101000a900473ffffffffffffffffffffffffffffffffffffffff1673ffffffffffffffffffffffffffffffffffffffff16146107b5576040517f08c379a000000000000000000000000000000000000000000000000000000000815260040180806020018281038252600d8152602001807f616c7265616479206f776e65640000000000000000000000000000000000000081525060200191505060405180910390fd5b336005600083815260200190815260200160002060006101000a81548173ffffffffffffffffffffffffffffffffffffffff021916908373ffffffffffffffffffffffffffffffffffffffff1602179055503373ffffffffffffffffffffffffffffffffffffffff1681847f0caacaeecd1c6227773c15da4076eb305bc712304e504e72c5226e1d33b1ddd5856040518082815260200191505060405180910390a460066000600760009054906101000a900473ffffffffffffffffffffffffffffffffffffffff1673ffffffffffffffffffffffffffffffffffffffff1673ffffffffffffffffffffffffffffffffffffffff16815260200190815260200160002054600660003373ffffffffffffffffffffffffffffffffffffffff1673ffffffffffffffffffffffffffffffffffffffff1681526020019081526020016000205411156109845733600760006101000a81548173ffffffffffffffffffffffffffffffffffffffff021916908373ffffffffffffffffffffffffffffffffffffffff1602179055503373ffffffffffffffffffffffffffffffffffffffff167fdbf1482a7a8aa71782b0a6938ea7a3c56d2021dade480ea0dccf3d312a702dcc60405160405180910390a25b505050565b60005481565b662386f26fc1000081565b60026020528060005260406000206000915054906101000a900460ff1681565b60046020528060005260406000206000915090505481565b6002600082815260200190815260200160002060009054906101000a900460ff16610a65576040517f08c379a00000000000000000000000000000000000000000000000000000000081526004018080602001828103825260138152602001807f6b696e6420646f6573206e6f742065786973740000000000000000000000000081525060200191505060405180910390fd5b6005600360008381526020019081526020016000205410610aee576040517f08c379a00000000000000000000000000000000000000000000000000000000081526004018080602001828103825260088152602001807f616c6c20676f6e6500000000000000000000000000000000000000000000000081525060200191505060405180910390fd5b6004600082815260200190815260200160002054341015610b77576040517f08c379a00000000000000000000000000000000000000000000000000000000081526004018080602001828103825260098152602001807f746f6f206368656170000000000000000000000000000000000000000000000081525060200191505060405180910390fd5b600160036000838152602001908152602001600020540160036000838152602001908152602001600020819055506706f05b59d3b20000600460008381526020019081526020016000205401600460008381526020019081526020016000208190555060006003600083815260200190815260200160002054620f42408302670de0b6b3a764000001019050600073ffffffffffffffffffffffffffffffffffffffff166005600083815260200190815260200160002060009054906101000a900473ffffffffffffffffffffffffffffffffffffffff1673ffffffffffffffffffffffffffffffffffffffff1614610cd8576040517f08c379a000000000000000000000000000000000000000000000000000000000815260040180806020018281038252600d8152602001807f616c7265616479206f776e65640000000000000000000000000000000000000081525060200191505060405180910390fd5b336005600083815260200190815260200160002060006101000a81548173ffffffffffffffffffffffffffffffffffffffff021916908373ffffffffffffffffffffffffffffffffffffffff1602179055503373ffffffffffffffffffffffffffffffffffffffff1681837f79ac36aa750d1ac66d1b1c90335c92d17ef7d02f617f5eae28f5111c8e24fa7560006040518082815260200191505060405180910390a45050565b60056020528060005260406000206000915054906101000a900473ffffffffffffffffffffffffffffffffffffffff1681565b60036020528060005260406000206000915090505481565b600581565b60016020528060005260406000206000915054906101000a900460ff168156fea2646970667358221220ab6104208a4b4b06790e2eb4f34a42e3825eadddbd2a272ba0ad87fa7bfed08164736f6c63430007040033",
  "immutableReferences": {},
  "source": "pragma solidity 0.7.4;\n\ncontract Minter {\n    \n    // events\n    event MintedReal(uint256 indexed kind, uint256 indexed id, uint256 tip, address indexed owner);\n    event MintedFun(uint256 indexed kind, uint256 indexed id, uint256 tip, address indexed owner);\n    event NewTipLeader(address indexed leader);\n\n    // fun kind\n    uint256 public constant FUN_PRICE = 1e16; // 0.01 ETH\n    uint256 public constant FUN_MINT_LIMIT = 100000;\n    uint256 public funMint;\n    mapping (uint256 => bool) public nftFunKinds;\n    \n    // real kind\n    uint256 public constant REAL_ID_OFFSET = 1e18;\n    uint256 public constant REAL_MINT_LIMIT = 5;\n    mapping (uint256 => bool) public nftKinds;\n    mapping (uint256 => uint256) public nftKindsNumbers;\n    mapping (uint256 => uint256) public nftKindsPrices;\n    \n    // global ownership registry\n    mapping (uint256 => address) public owner;\n    \n    // tipping state\n    mapping (address => uint256) public tips;\n    address public tipLeader;\n    \n    constructor(uint256 _nftKinds, uint256 _nftFunKinds) public {\n        // register all real NFT kinds for minting\n        for (uint256 kind = 1; kind <= _nftKinds; kind++) {\n            nftKinds[kind] = true;\n            nftKindsPrices[kind] = 5 * 1e17;\n        }\n        // register all fund NFT kinds for minting\n        for (uint256 kind = 1; kind <= _nftFunKinds; kind++) {\n            nftFunKinds[kind] = true;\n        }\n    }\n    \n    function mint(uint256 nftKind) external payable {\n        require(nftKinds[nftKind], \"kind does not exist\");\n        require(nftKindsNumbers[nftKind] < REAL_MINT_LIMIT, \"all gone\");\n        require(msg.value >= nftKindsPrices[nftKind], \"too cheap\");\n        nftKindsNumbers[nftKind] = nftKindsNumbers[nftKind] + 1;\n        nftKindsPrices[nftKind] = nftKindsPrices[nftKind] + 5 * 1e17; // + 0.5 ETH\n        uint256 nftId = REAL_ID_OFFSET + nftKind * 1e6 + nftKindsNumbers[nftKind];\n        require(owner[nftId] == address(0), \"already owned\"); // sanity check\n        owner[nftId] = msg.sender;\n        emit MintedReal(nftKind, nftId, 0, msg.sender);\n    }\n    \n    function mintFun(uint256 nftKind) external payable {\n        require(nftFunKinds[nftKind], \"kind does not exist\");\n        require(funMint < FUN_MINT_LIMIT, \"all are gone!\");\n        require(msg.value >= FUN_PRICE, \"too cheap!\");\n        uint256 tip = msg.value - FUN_PRICE;\n        tips[msg.sender] = tips[msg.sender] + tip;\n        funMint = funMint + 1;\n        uint256 nftId = funMint;\n        require(owner[nftId] == address(0), \"already owned\"); // sanity check\n        owner[nftId] = msg.sender;\n        emit MintedFun(nftKind, nftId, tip, msg.sender);\n        if (tips[msg.sender] > tips[tipLeader]) {\n            tipLeader = msg.sender;\n            emit NewTipLeader(msg.sender);\n        }\n    }\n}\n\n",
  "sourcePath": "/Users/iluiscastillo/Documents/blockchain/projects/gallery-site/contracts/Minter.sol",
  "compiler": {
    "name": "solc",
    "version": "0.7.4+commit.3f05b770.Emscripten.clang"
  },
  "schemaVersion": "3.3.4",
  "updatedAt": "2021-03-31T23:34:36.279Z",
  "networkType": "ethereum",
  "devdoc": {
    "kind": "dev",
    "methods": {},
    "version": 1
  },
  "userdoc": {
    "kind": "user",
    "methods": {},
    "version": 1
  }
}